:100000000C94DA000C940A060C94E3050C9402019B
:100010000C9402010C9402010C943B060C94020116
:100020000C9402010C9431060C9402010C94020110
:100030000C9402010C9402010C9402010C94020134
:100040000C9499050C9402010C94C4020C949E0229
:100050000C9402010C9402010C9402010C94020114
:100060000C9402010C9402010000000024002700FF
:100070002A0000000000250028002B0004040404CE
:100080000404040402020202020203030303030342
:10009000010204081020408001020408102001021F
:1000A00004081020000000080002010000030407FB
:1000B000000000000000000000407A10F35A00A089
:1000C000724E18090010A5D4E80000E87648170021
:1000D00000E40B54020000CA9A3B000000E1F50561
:1000E000000080969800000040420F000000A086AB
:1000F00001000000102700000000E80300000000DD
:100100006400000000000A00000000000100000080
:1001100000002C76D888DC674F0823DFC1DFAE599A
:10012000E1B1B796E5E3E453C63AE651997696E82D
:10013000E6C28426EB898C9B62ED407C6FFCEFBCB1
:100140009C9F40F2BAA56FA5F490055A2AF75C93DC
:100150006B6CF9676DC11BFCE0E40D47FEF520E612
:10016000B500D0ED902E0300943577050080841EF5
:10017000080000204E0A000000C80C333333330F50
:10018000986E12831141EF8D2114893BE65516CFED
:10019000FEE6DB18D1844B381BF77C1D901DA4BBF9
:1001A000E424203284725E228100C9F124ECA1E5AE
:1001B0003D273F0B11241FBECFEFD8E0DEBFCDBFE0
:1001C00011E0A0E0B1E0E0E7F5E202C005900D9299
:1001D000A439B107D9F722E0A4E9B1E001C01D922A
:1001E000AE3BB207E1F710E0CAEDD0E004C02197C2
:1001F000FE010E94980BC93DD107C9F70E940C0867
:100200000C94B6120C940000CF92DF92EF92FF9202
:100210000F931F93CF93DF936C017A018B01C0E0A2
:10022000D0E0CE15DF0589F0D8016D918D01D601A2
:10023000ED91FC910190F081E02DC6010995892B8B
:1002400011F47E0102C02196ECCFC701DF91CF915E
:100250001F910F91FF90EF90DF90CF9008950E9433
:10026000790E0F931F93CF93DF93EC0188819981CF
:10027000009729F02A813B812617370788F48B01E4
:100280006F5F7F4F0E94AF0D009761F09983888365
:100290001B830A832C813D81232B11F4FC011082E6
:1002A00081E001C080E0DF91CF911F910F9108950F
:1002B000CF93DF93EC0188819981009711F00E9420
:1002C000170D198218821D821C821B821A82DF91EF
:1002D000CF910895EF92FF920F931F93CF93DF93E7
:1002E000EC017B018A01BA010E943101811104C035
:1002F000CE010E94580107C01D830C83B70188817D
:1003000099810E94870ECE01DF91CF911F910F91AD
:10031000FF90EF90089587EF91E00E94180321E08D
:10032000892B09F420E0822F0895EF92FF920F931A
:100330001F93CF93DF93FC012481358161157105F3
:1003400011F480E019C041155105A9F07B01EC01C1
:100350008A01020F131FB8010E943101882389F31B
:10036000288139818C819D81B701820F931F0E9462
:10037000870E1D830C8381E0DF91CF911F910F9138
:10038000FF90EF900895CF93DF93EC01FB01448140
:100390005581608171810E949501811103C0CE0158
:1003A0000E945801CE01DF91CF910895FB01448155
:1003B0005581608171810C949501CF93DF93EC019D
:1003C0006115710559F0FB0101900020E9F73197A3
:1003D000AF01461B570B0E946A0102C00E945801E0
:1003E000CE01DF91CF910895FC01808191810C9421
:1003F000170DEF92FF920F931F93CF93DF93CDB71B
:10040000DEB7A1970FB6F894DEBF0FBECDBF7C015B
:10041000CB01BA01F7011182108213821282158278
:10042000148242E0420F8E010F5F1F4F0E949D0E0B
:10043000BC01C7010E94DD01A1960FB6F894DEBF92
:100440000FBECDBFDF91CF911F910F91FF90EF9025
:100450000895FB01DC0111961C921E9213961C92CA
:100460001E92129715961C921E9214978617970744
:1004700049F0608171816115710521F044815581D8
:100480000C946A010895FC01118210821382128279
:10049000158214826115710551F0FB010190002055
:1004A000E9F73197AF01461B570B0C946A01089589
:1004B000BF92CF92DF92EF92FF920F931F93CF9351
:1004C000DF937C016B018A01E9012417350720F4D1
:1004D000812F8901C42FD82F65E671E0C7010E94E2
:1004E0004302D60114968D919C9115970817190710
:1004F000D0F48C179D0708F4EC01D601ED91FC9126
:100500001197EC0FFD1FB08010824D915C91BA01E4
:10051000600F711FC7010E94DD01D601ED91FC91B2
:10052000EC0FFD1FB082C701DF91CF911F910F919A
:10053000FF90EF90DF90CF90BF9008951F920F92A1
:100540000FB60F9211242F933F934F935F936F93A6
:100550007F938F939F93AF93BF93EF93FF9387EF17
:1005600091E00E947B04FF91EF91BF91AF919F9129
:100570008F917F916F915F914F913F912F910F904C
:100580000FBE0F901F9018951F920F920FB60F92EB
:1005900011242F938F939F93EF93FF93E091070282
:1005A000F09108028081E0910D02F0910E0282FD2F
:1005B00012C09081809110028F5F8F732091110281
:1005C000821751F0E0911002F0E0E950FE4F958F54
:1005D0008093100201C08081FF91EF919F918F91D4
:1005E0002F910F900FBE0F901F901895FC01918DC9
:1005F000828D981761F0828DDF01A80FB11D5D9685
:100600008C91928D9F5F9F73928F90E008958FEFF2
:100610009FEF0895FC01918D828D981731F0828DA6
:10062000E80FF11D858D90E008958FEF9FEF0895FD
:10063000FC01918D228D892F90E0805C9F4F821B61
:1006400091098F739927089580E090E0892B29F014
:100650000E948B0181110C94000008958E3008F0E7
:100660008E508770806480937C0080917A008064D3
:1006700080937A0080917A0086FDFCCF809178008B
:100680002091790090E0922B0895089581E0809365
:10069000AC0108958F929F92AF92BF92CF92DF925A
:1006A000EF92FF920F931F93CF93DF93CDB7DEB7F7
:1006B000CD54D1090FB6F894DEBF0FBECDBF8C016B
:1006C000FC0184819581CD9708F0B7C08BE591E05E
:1006D0000E94A507F8012481358140E050E019A26D
:1006E0007E01F1E2EF0EF11C8AE0882E912CA12C04
:1006F000B12CCA01B901A50194010E94760B605D7D
:10070000F70162937F01211531054105510589F7F4
:10071000CF010E94A50783E691E00E94A507F8019A
:10072000E480F580E092AD01FFEFEF16FF06B1F037
:100730008EEA91E0892B91F0E114F10419F4109202
:10074000AE010CC0F80160817181A7018EEA91E0D1
:100750000E948E0EF701E255FE4F108281E4EDEA11
:10076000F1E0DE01119601900D928A95E1F7F0908B
:10077000AD0182E08093950284E30E94CB0785E37C
:100780000E94D207982F9F719D3021F08131B9F7D7
:100790008AE3F3CF8BEC97E00197F1F76F2D8FE3AE
:1007A0000E94DD072A981C99FECF8FE70E94C5079B
:1007B0006E01F2E0CF0ED11C8601802F8C198F15AF
:1007C00030F4F80181918F010E94C507F6CF2A9A73
:1007D00085E30E94CB0785E30E94D2078F71835186
:1007E000833068F086E30E94CB078BE30E94CB073F
:1007F00084E30E94CB0781E08093950219C04A9B55
:10080000FECF4A99FECF8AE30E94D207182F86E3D3
:100810000E94CB078BE30E94CB0784E30E94CB07A7
:1008200081E0809395021F7719F486E691E002C07B
:1008300084E791E00E94B7074AC027E330E040E038
:1008400050E0B801CE018E5B9F4F0E945802F80124
:100850002481358147E350E0B801CE0101960E9422
:10086000580245E050E065E871E0CE018E5B9F4F95
:100870000E949501BE016E5B7F4FCE01885B9F4F4A
:100880000E942902CE01885B9F4F0E944A03CE013D
:10089000885B9F4F0E94F401BE016F5F7F4FCE01C6
:1008A000885B9F4F0E942902CE01885B9F4F0E9468
:1008B0004A03CE01885B9F4F0E94F401CE0101964E
:1008C0000E94F401CE018E5B9F4F0E94F401C35B36
:1008D000DF4F0FB6F894DEBF0FBECDBFDF91CF91D3
:1008E0001F910F91FF90EF90DF90CF90BF90AF904E
:1008F0009F908F900895FC01848DDF01A80FB11D9A
:10090000A35ABF4F2C91848D90E001968F73992745
:10091000848FA689B7892C93A089B1898C91806432
:100920008C93938D848D981306C00288F389E02DF3
:1009300080818F7D80830895EF92FF920F931F93A4
:10094000CF93DF93EC0181E0888F9B8D8C8D981382
:1009500005C0E889F989808185FD24C0F62E0B8DBC
:1009600010E00F5F1F4F0F731127E02E8C8DE812E0
:100970000CC00FB607FCFACFE889F989808185FFA2
:10098000F5CFCE010E947B04F1CF8B8DFE01E80FE5
:10099000F11DE35AFF4FF0820B8FEA89FB898081BA
:1009A000806207C0EE89FF896083E889F9898081C8
:1009B0008064808381E090E0DF91CF911F910F915F
:1009C000FF90EF900895CF93DF93EC01888D8823FB
:1009D000C9F0EA89FB89808185FD05C0A889B989AC
:1009E0008C9186FD0FC00FB607FCF5CF808185FF87
:1009F000F2CFA889B9898C9185FFEDCFCE010E94F5
:100A00007B04E7CFDF91CF91089590E0FC01EC5596
:100A1000FF4F3491FC01E057FF4F2491FC01E45853
:100A2000FF4FE491EE2309F43BC0332339F1333017
:100A300091F038F43130A9F0323001F584B58F7D72
:100A400012C0373091F03830A1F03430B9F48091D1
:100A500080008F7D03C0809180008F77809380001D
:100A60000DC084B58F7784BD09C08091B0008F77A9
:100A700003C08091B0008F7D8093B000F0E0EE0F56
:100A8000FF1FEE58FF4FA591B4918FB7F894EC91EA
:100A9000611103C020952E2301C02E2B2C938FBFF4
:100AA0000895CF93DF9390E0FC01E057FF4F24912E
:100AB000FC01E458FF4F8491882361F190E0880F96
:100AC000991FFC01E859FF4FC591D491FC01EE58E4
:100AD000FF4FA591B491611109C09FB7F894888127
:100AE000209582238883EC912E230BC0623061F421
:100AF0009FB7F8943881822F809583238883EC9167
:100B00002E2B2C939FBF06C08FB7F894E8812E2B15
:100B100028838FBFDF91CF9108952FB7F89460910C
:100B2000F3017091F4018091F5019091F6012FBFCE
:100B300008951F920F920FB60F9211242F933F9397
:100B40008F939F93AF93BF938091F3019091F401A2
:100B5000A091F501B091F6013091F20123E0230F4D
:100B60002D3720F40196A11DB11D05C026E8230FE5
:100B70000296A11DB11D2093F2018093F301909381
:100B8000F401A093F501B093F6018091EE019091EC
:100B9000EF01A091F001B091F1010196A11DB11DED
:100BA0008093EE019093EF01A093F001B093F101D7
:100BB000BF91AF919F918F913F912F910F900FBE59
:100BC0000F901F9018951F920F920FB60F9211243D
:100BD0002F933F934F935F936F937F938F939F9345
:100BE000AF93BF93EF93FF93E0910201F091030164
:100BF0000995FF91EF91BF91AF919F918F917F9157
:100C00006F915F914F913F912F910F900FBE0F9079
:100C10001F9018951F920F920FB60F9211242F93C9
:100C20003F934F935F936F937F938F939F93AF9374
:100C3000BF93EF93FF93E0910001F09101010995BB
:100C4000FF91EF91BF91AF919F918F917F916F91A4
:100C50005F914F913F912F910F900FBE0F901F907A
:100C600018951F920F920FB60F9211240F900FBE7E
:100C70000F901F9018951F920F920FB60F9211248C
:100C80000F900FBE0F901F9018950E942E03909307
:100C9000AB018093AA01BC01990F880B990B0E94AC
:100CA0005A1120E030E040EA50E40E94B91120E0FF
:100CB00030E040E85AE30E94B9116093A6017093B6
:100CC000A7018093A8019093A9012CE83EE24AEB8A
:100CD0005DE30E940B0C6093A2017093A3018093CB
:100CE000A4019093A50108958F929F92AF92BF9215
:100CF000CF92DF92EF92FF920F931F93CF93DF93E8
:100D0000CDB7DEB76E970FB6F894DEBF0FBECDBF7E
:100D10001C8A1B8A1E8A1D8A188E1F8A4AE0BE0101
:100D20006F5F7F4F81E090E00E94BD0EBE016F5F5C
:100D30007F4FCE0143960E94DD018EE00E942E037C
:100D40008C018FE090E00E9445064B015C0180E140
:100D500090E00E9445066B017C01B801110F880BE1
:100D6000990B0E945A1120E030E040E85AE30E94BB
:100D7000B91120E030E44CE955E40E94B9119B011F
:100D8000AC0160E070E48CE195E40E949E0B20E0F1
:100D900030E048EC52E40E940B0CAB01BC012AE0AD
:100DA000CE0149960E94F90162E971E0CE010196F7
:100DB0000E944302BE01675E7F4FCE0101960E94F2
:100DC000C301BC01CE0143960E94D601CE0101961B
:100DD0000E94F401CE0149960E94F4012AE0B50177
:100DE000A401CE0149960E94F90162E971E0CE01A9
:100DF00001960E944302BE01675E7F4FCE010196BD
:100E00000E94C301BC01CE0143960E94D601CE01CF
:100E100001960E94F401CE0149960E94F4012AE055
:100E2000B701A601CE0149960E94F90162E971E07D
:100E3000CE0101960E944302BE01675E7F4FCE0144
:100E400001960E94C301BC01CE0143960E94D601C7
:100E5000CE0101960E94F401CE0149960E94F40150
:100E600080910501909106011A8E198E1C8E1B8EA1
:100E70001E8E1D8E4AE0BE016F5F7F4F0E94BD0E29
:100E8000BE016F5F7F4FCE0149960E94DD0162E98E
:100E900071E0CE0101960E944302BE01675E7F4F62
:100EA000CE0101960E94C301BC01CE0143960E946F
:100EB000D601CE0101960E94F401CE0149960E940E
:100EC000F401BE016D5E7F4FCE0101960E942902A2
:100ED000CE0101960E944A03CE0101960E94F401C0
:100EE0006BE871E0CE0101960E944302BE016D5E87
:100EF0007F4FCE0101960E94C301FC0144815581C0
:100F00006081718187EF91E00E94040183E691E0A6
:100F10000E94A507CE0101960E94F401CE014396DE
:100F20000E94F4016E960FB6F894DEBF0FBECDBFDF
:100F3000DF91CF911F910F91FF90EF90DF90CF90B5
:100F4000BF90AF909F908F900895009769F0FC013B
:100F500001900020E9F73197AF01481B590BBC0104
:100F600087EF91E00C94040180E090E00895CF9326
:100F7000DF930E94A507EC0183E691E00E94A5079C
:100F80008C0F9D1FDF91CF9108958EBD0DB407FE8C
:100F9000FDCF8EB508952A981C99FECF0E94C507F3
:100FA0002A9A0895806C2A981C99FECF0E94C50742
:100FB00080E00E94C5072A9A0895CF93DF931F927D
:100FC000CDB7DEB72A981C99FECF69830E94C5076A
:100FD0006981862F0E94C5072A9A0F90DF91CF91D1
:100FE0000895CF93DF9390919902981304C0909144
:100FF0009A02961771F0C62FD82F682F84E00E94AE
:10100000DD076C2F85E00E94DD07D0939902C09325
:101010009A02DF91CF910895789484B5826084BD5F
:1010200084B5816084BD85B5826085BD85B58160EC
:1010300085BD80916E00816080936E00109281006A
:101040008091810082608093810080918100816025
:1010500080938100809180008160809380008091E6
:10106000B10084608093B1008091B0008160809372
:10107000B00080917A00846080937A0080917A0039
:10108000826080937A0080917A00816080937A00F8
:1010900080917A00806880937A001092C100E0917C
:1010A0000702F091080282E08083E0910302F09150
:1010B00004021082E0910502F09106028FEC808319
:1010C00010920F02E0910B02F0910C0286E08083F7
:1010D000E0910902F0910A02808180618083E091B1
:1010E0000902F0910A02808188608083E091090200
:1010F000F0910A02808180688083E0910902F0917A
:101100000A0280818F7D808361E087E00E94510523
:1011100061E08AE00E94050561E08AE00E945105D5
:1011200061E08BE00E94510560E08CE00E94510577
:1011300061E08DE00E94510561E08DE00E940505AF
:1011400060E08BE00E94050580E58CBD60E082E0F8
:101150000E9451052A9A8FE090E00197F1F72A98B2
:1011600083E290E00197F1F72A9A8FE990E00197E6
:10117000F1F72A981C99FECF80E30E94C5071C99BD
:10118000FECF2A9A6EE280E00E94DD076EE281E0E7
:101190000E94DD0766E082E00E94DD0767E083E0F1
:1011A0000E94DD076DE386E00E94DD0766E087E0D0
:1011B0000E94DD0765E088E00E94DD0767E485EBBB
:1011C0000E94F10780919B028F3F39F06FEF89E019
:1011D0000E94DD078FEF80939B0280919802882305
:1011E00031F060E08AE00E94DD071092980268E02A
:1011F0008BE00E94DD0760E08CE00E94DD0761E289
:101200008DE00E94DD0762E68EE00E94DD0766E762
:101210008FE00E94DD07109297026AEC80E10E9445
:10122000DD0763E881E10E94DD0763E982E10E9456
:10123000DD0762E283E10E94DD0768EF84E10E943E
:10124000DD0765E385E10E94DD0767E086E10E9436
:10125000DD0760E287E10E94DD0768E188E10E9426
:10126000DD0766E189E10E94DD076CE68AE10E9404
:10127000DD0763E48BE10E94DD0760E48CE10E94FE
:10128000DD0761E98DE10E94DD0767E88EE10E94DC
:10129000DD076BE68FE10E94DD076BEF80E20E94C5
:1012A000DD0766E581E20E94DD0760E182E20E94DF
:1012B000DD0769EE83E20E94DD076AE284E20E94B4
:1012C000DD0760E085E20E94DD076FE186E20E94B3
:1012D000DD0761E487E20E94DD0760E088E20E94AA
:1012E000DD0769E589E20E94DD076FE78AE20E9477
:1012F000DD076FE38BE20E94DD0761E88CE20E946C
:10130000DD0765E38DE20E94DD0769E08EE20E9461
:10131000DD0780E090E00E947712C82F8A3050F4F9
:10132000809198028C1731F06C2F8AE00E94DD07C3
:10133000C093980282E090E00E947712C82F83E069
:1013400090E00E9477129FEF9C0F9E3F20F09FEF4E
:10135000980F9E3F20F4682F8C2F0E94F10784E0A5
:1013600090E00E947712C82F882351F080919B0251
:101370008C1731F06C2F89E00E94DD07C0939B022F
:10138000609196028EE30E94DD0763E487E50E9488
:10139000F10780919B028F3F39F06FEF89E00E9447
:1013A000DD078FEF80939B0260E18DE00E94DD07F7
:1013B00067EA8EE00E94DD0762E68FE00E94DD07AB
:1013C00082E08093970266E00E94DD0767E483E095
:1013D0000E94DD0765E088E00E94DD0761E08AE0A9
:1013E0000E94DD0766E08BE00E94DD0760E18DE092
:1013F0000E94DD0767EA8EE00E94DD0762E68FE06B
:101400000E94DD0765EF80E10E94DD0763E881E16E
:101410000E94DD0763E182E10E94DD0765E185E16D
:101420000E94DD0768E188E10E94DD0766E189E14D
:101430000E94DD076BEF80E20E94DD0769EE83E228
:101440000E94DD076AE284E20E94DD0760E085E237
:101450000E94DD076FE186E20E94DD0761E88CE211
:101460000E94DD0765E38DE20E94DD0769E08EE200
:101470000E94DD0764E087E00E94DD0786E493E0D8
:101480009093010180930001809169008C7F8260BC
:1014900080936900E89A8DE191E00E94B7070E946D
:1014A0008D056093940170939501809396019093BC
:1014B00097010E948D056093980170939901809324
:1014C0009A0190939B01C1E00E948D058B019C01C4
:1014D00060939C0170939D0180939E0190939F0166
:1014E00040919401509195016091960170919701FE
:1014F000809105019091060104171507260737070B
:10150000E8F44095509560957095400F511F621F0B
:10151000731F40385E4E66437105F0F000939401EE
:10152000109395012093960130939701873191058F
:1015300071F410920601109205010EC06801790144
:10154000C41AD50AE60AF70AB701A601E2CF019646
:101550009093060180930501E0900501F09006014B
:10156000C70106970D9708F44CC080E190E00E94F7
:10157000450611E020E030E040E451E40E947D0C9B
:1015800018160CF010E0109304018091A001811155
:101590000DC0112369F08091A10181110FC061E09C
:1015A00087E00E940505C093A00108C0111106C084
:1015B00060E087E00E940505C093A101C7018D5B33
:1015C0009E4F0E94B7070E948D0560939C01709307
:1015D0009D0180939E0190939F010091980110912D
:1015E000990120919A0130919B01DC01CB01801B74
:1015F000910BA20BB30B80349747AB41B105E0F1DF
:1016000029C01092A1018091A001882331F060E0EF
:1016100087E00E9405051092A0010E948D0560934D
:101620009C0170939D0180939E0190939F01009176
:1016300098011091990120919A0130919B01DC0150
:10164000CB01801B910BA20BB30B80369A4EAF4F90
:10165000BF4F90F00E94740680919C0190919D0173
:10166000A0919E01B0919F01809398019093990160
:10167000A0939A01B0939B010E94240325CFE7EF2A
:10168000F1E01382128288EE93E0A0E0B0E0848360
:101690009583A683B78381E191E09183808385EC74
:1016A00090E09587848784EC90E09787868780EC2C
:1016B00090E0918B808B81EC90E0938B828B82EC1D
:1016C00090E0958B848B86EC90E0978B868B118EC7
:1016D000128E138E148EECE9F2E080EC8583158E69
:1016E000148E11821082809396020895A1E21A2E20
:1016F000AA1BBB1BFD010DC0AA1FBB1FEE1FFF1FB6
:10170000A217B307E407F50720F0A21BB30BE40B05
:10171000F50B661F771F881F991F1A9469F760954C
:101720007095809590959B01AC01BD01CF01089506
:10173000EE0FFF1F0590F491E02D09945058BB2740
:10174000AA270E94B60B0C943D120E942F1238F06B
:101750000E94361220F039F49F3F19F426F40C94BD
:101760002C120EF4E095E7FB0C942612E92F0E9450
:101770004E1258F3BA17620773078407950720F0D3
:1017800079F4A6F50C9470120EF4E0950B2EBA2F96
:10179000A02D0B01B90190010C01CA01A001112477
:1017A000FF27591B99F0593F50F4503E68F11A1623
:1017B000F040A22F232F342F4427585FF3CF4695B4
:1017C00037952795A795F0405395C9F77EF41F16D6
:1017D000BA0B620B730B840BBAF09150A1F0FF0FA0
:1017E000BB1F661F771F881FC2F70EC0BA0F621F8C
:1017F000731F841F48F4879577956795B795F7957C
:101800009E3F08F0B0CF9395880F08F09927EE0F10
:101810009795879508950E941F0C0C943D120E9485
:10182000361258F00E942F1240F029F45F3F29F041
:101830000C94261251110C9471120C942C120E94CB
:101840004E1268F39923B1F3552391F3951B550B71
:10185000BB27AA2762177307840738F09F5F5F4F83
:10186000220F331F441FAA1FA9F335D00E2E3AF0C2
:10187000E0E832D091505040E695001CCAF72BD0DA
:10188000FE2F29D0660F771F881FBB1F261737072B
:101890004807AB07B0E809F0BB0B802DBF01FF275D
:1018A00093585F4F3AF09E3F510578F00C94261202
:1018B0000C9471125F3FE4F3983ED4F386957795CC
:1018C0006795B795F7959F5FC9F7880F911D969516
:1018D000879597F90895E1E0660F771F881FBB1F72
:1018E000621773078407BA0720F0621B730B840B1F
:1018F000BA0BEE1F88F7E09508950E94951108F441
:101900008FEF0895CF93DF938230910510F482E03A
:1019100090E0E091BC02F091BD0220E030E0C0E038
:10192000D0E0309711F14081518148175907C0F03C
:101930004817590761F482819381209719F09B839E
:101940008A832BC09093BD028093BC0226C02115D0
:10195000310519F04217530718F49A01BE01DF014F
:10196000EF010280F381E02DDCCF2115310509F173
:10197000281B390B2430310590F412968D919C91DF
:1019800013976115710521F0FB019383828304C0D5
:101990009093BD028093BC02FD01329644C0FD01CC
:1019A000E20FF31F81939193225031092D933C93C1
:1019B0003AC02091BA023091BB02232B41F420910E
:1019C000090130910A013093BB022093BA022091A1
:1019D0000701309108012115310541F42DB73EB7BB
:1019E00040910B0150910C01241B350BE091BA0280
:1019F000F091BB02E217F307A0F42E1B3F0B281750
:101A0000390778F0AC014E5F5F4F2417350748F077
:101A10004E0F5F1F5093BB024093BA028193919384
:101A200002C0E0E0F0E0CF01DF91CF9108950F9385
:101A30001F93CF93DF93009709F48CC0FC0132977A
:101A4000138212820091BC021091BD020115110592
:101A500081F420813181820F931F2091BA0230914D
:101A6000BB022817390779F5F093BB02E093BA025D
:101A700071C0D80140E050E0AE17BF0750F4129695
:101A80002D913C911397AD012115310509F1D90133
:101A9000F3CF9D01DA013383228360817181860F48
:101AA000971F8217930769F4EC0128813981260F6B
:101AB000371F2E5F3F4F318320838A819B81938321
:101AC0008283452B29F4F093BD02E093BC0242C00F
:101AD0001396FC93EE931297ED01499159919E0153
:101AE000240F351FE217F30771F480819181840F71
:101AF000951F029611969C938E93828193811396E3
:101B00009C938E931297E0E0F0E0D80112968D91AD
:101B10009C911397009719F0F8018C01F6CF8D91E5
:101B20009C9198012E5F3F4F820F931F2091BA0224
:101B30003091BB022817390769F4309729F41092C5
:101B4000BD021092BC0202C0138212821093BB022B
:101B50000093BA02DF91CF911F910F910895A0E0F9
:101B6000B0E0E5EBFDE00C948312EC01009721F46A
:101B7000CB010E94820CB8C0FC01E60FF71F9C014C
:101B800022503109E217F30708F4ACC0D9010D91D6
:101B90001C91119706171707B0F00530110508F4CE
:101BA0009FC0C80104978617970708F499C0025090
:101BB0001109061B170B019311936D937C93CF01B1
:101BC0000E94170D8DC05B01A01AB10A4C01800E56
:101BD000911EA091BC02B091BD0240E050E0E12C0A
:101BE000F12C109709F44AC0A815B905D1F56D90EC
:101BF0007C901197630182E0C80ED11CCA14DB04EB
:101C000080F1A3014A195B096A0182E0C80ED11C68
:101C10001296BC9012971396AC91B5E0CB16D104F6
:101C200040F0B282A38351834083D9016D937C93AA
:101C30000AC00E5F1F4FC301800F911FF9019183EE
:101C40008083EB2DFA2FE114F10431F0D7011396C4
:101C5000FC93EE93129744C0F093BD02E093BC0254
:101C60003FC08D919C9111974817590708F4AC011A
:101C70007D0112960D90BC91A02DB3CF8091BA0238
:101C80009091BB0288159905E1F446175707C8F4EF
:101C90008091070190910801009741F48DB79EB79C
:101CA00040910B0150910C01841B950BE817F9072B
:101CB000C8F4F093BB02E093BA02F9017183608328
:101CC0000FC0CB010E94820C7C01009759F0A80143
:101CD000BE010E947E0ECE010E94170DC70104C0F6
:101CE000CE0102C080E090E0CDB7DEB7EEE00C940C
:101CF0009F1281E090E0F8940C94B612FB01DC0195
:101D000002C001900D9241505040D8F70895FB0158
:101D1000DC0101900D920020E1F70895FB01DC0148
:101D20004150504048F001900D920020C9F701C089
:101D30001D9241505040E0F70895EF920F931F938A
:101D4000CF93DF93E80147FD02C034E001C034E1E6
:101D5000E42F440FFF0BF7FF03C0F195E195F10964
:101D6000E32E022F2E2FAE010E94E20ECE01DF9154
:101D7000CF911F910F91EF900895BB274A3031F416
:101D8000992322F4BDE2909581959F4F0C94C90E42
:101D9000BB27FB015527AA27880F991FAA1FA41745
:101DA00010F0A41B83955051B9F7A05DAA3308F039
:101DB000A95DA193009779F7B111B1931192CB016D
:101DC0000C9448114F925F926F927F929F92AF92C4
:101DD000BF92CF92DF92EF92FF920F931F93CF9318
:101DE000DF93CDB7DEB729970FB6F894DEBF0FBEED
:101DF000CDBF6A01122FB02E2BE3201720F0FF2455
:101E0000F394F00E02C0BCE3FB2E0F2D27E0AE01D1
:101E10004F5F5F4F0E947010AC018981982F9970BD
:101E2000913031F0E1FC06C0E0FE06C090E205C052
:101E30009DE203C09BE201C090E0EE2DE07183FFC4
:101E40003CC0911102C083E001C084E0811718F406
:101E5000212F281B01C020E0E1110BC0F601822FC9
:101E600030E2882319F031938150FBCFC20ED11C90
:101E700020E0992329F0D6019C93F60131966F0159
:101E8000C6010396E2FE0AC03EE4D6013C9341E45B
:101E900011964C93119712963C9306C03EE6F601BC
:101EA000308341E641833283FC01322F40E2332309
:101EB00009F442C041933150FACF82FF44C09111DE
:101EC00002C083E001C084E0811718F4212F281B91
:101ED00001C020E0E1110BC0F601822F30E288231F
:101EE00019F031938150FBCFC20ED11C20E0992311
:101EF00029F0D6019C93F60131966F01C601039635
:101F0000E2FE0BC039E4D6013C933EE411963C93CB
:101F1000119736E412963C9307C039E6F6013083F8
:101F20003EE6318336E63283FC01322F40E2332332
:101F300019F041933150FBCFFC01E20FF11D1082EB
:101F40008EEF9FEFB7C0F1E0911101C0F0E06F2F6D
:101F500070E01416150624F49A012F5F3F4F02C05B
:101F600021E030E0260F371FBB2029F06B2D70E0F9
:101F70006F5F7F4F02C060E070E0260F371F612F58
:101F800070E0261737071CF4121B212F01C020E038
:101F90003E2D387159F4D601322F60E2332319F007
:101FA0006D933150FBCFC20ED11C20E0FF2331F0E6
:101FB000D6019C93B6016F5F7F4F6B01E1110BC09F
:101FC000F601922F30E3992319F031939150FBCF12
:101FD000C20ED11C20E09F2D940F3A81782F707192
:101FE000A72E84FF03C0313309F49150191624F44D
:101FF000993018F098E001C091E0E42F852F57FF49
:1020000002C0E0E080E06E2F782FE0E0F0E0AEE28A
:102010009A2E3A01691A71082A01461A570A0B2D9D
:1020200010E01195019511096F3F8FEF780729F4A2
:10203000D6019C92C60101966C014617570784F0A1
:10204000661677066CF47F01E40CF51CA1E0B0E0A5
:10205000AC0FBD1FEA0EFB1ED7011196BC9002C04B
:1020600090E3B92E615071093196C60101967C0149
:102070006017710724F0D601BC926C01D5CF6417AC
:10208000750741F4363320F4353321F4A11002C032
:1020900081E3B82EF601B082F701822F90E2882307
:1020A00019F091938150FBCFF701E20FF11D1082DF
:1020B00080E090E029960FB6F894DEBF0FBECDBF4A
:1020C000DF91CF911F910F91FF90EF90DF90CF9014
:1020D000BF90AF909F907F906F905F904F900895CA
:1020E000283008F027E03327DA01990F311D87FDEA
:1020F000916000966105710539F432602E5F3D9361
:1021000030E32A95E1F708959F3F30F0803871055C
:10211000610509F03C5F3C5F3D93913008F08068B9
:10212000911DDF93CF931F930F93FF92EF92192F7F
:10213000987F9695E92F96959695E90FFF27EE5E85
:10214000FE4F99273327EE24FF24A701E7010590CE
:102150000894079428F4360FE71EF81E491F511DF6
:10216000660F771F881F991F0694A1F705900794A3
:1021700028F4E70EF81E491F561FC11D770F881F50
:10218000991F661F0694A1F70590079428F4F80E8E
:10219000491F561FC71FD11D880F991F661F771F24
:1021A0000694A1F70590079420F4490F561FC71F06
:1021B000D81F990F661F771F881F0694A9F784916F
:1021C0001095177041F0D695C79557954795F79498
:1021D000E7941A95C1F7E8EBF0E068941590159133
:1021E00035916591959105907FE27395E118F10A1B
:1021F000430B560BC90BD009C0F7E10CF11E431F6E
:10220000561FC91FD01D7EF4703311F48A95E6CF96
:10221000E894015030F0080F0AF40027021708F480
:10222000202F2395022F7A3328F079E37D932A9586
:10223000E9F710C07D932A9589F6069497956795DE
:10224000379517951794E118F10A430B560BC90BF4
:10225000D00998F023957E9173957A3308F070E356
:102260007C932013B8F77E9170617D9330F0839555
:1022700071E37D9370E32A95E1F71124EF90FF90CD
:102280000F911F91CF91DF91992787FD9095089528
:10229000DC01FC01672F71917723E1F7329704C0CD
:1022A0007C916D9370836291AE17BF07C8F3089558
:1022B000E89409C097FB3EF49095809570956195E0
:1022C0007F4F8F4F9F4F9923A9F0F92F96E9BB2796
:1022D0009395F695879577956795B795F111F8CF12
:1022E000FAF4BB0F11F460FF1BC06F5F7F4F8F4F7D
:1022F0009F4F16C0882311F096E911C0772321F073
:102300009EE8872F762F05C0662371F096E8862F0A
:1023100070E060E02AF09A95660F771F881FDAF761
:10232000880F9695879597F90895990F0008550F8E
:10233000AA0BE0E8FEEF16161706E807F907C0F04B
:1023400012161306E407F50798F0621B730B840B53
:10235000950B39F40A2661F0232B242B252B21F42D
:1023600008950A2609F4A140A6958FEF811D811DCD
:1023700008950E94CC110C943D120E942F1238F047
:102380000E94361220F0952311F00C9426120C9422
:102390002C1211240C9471120E944E1270F3959F0E
:1023A000C1F3950F50E0551F629FF001729FBB274C
:1023B000F00DB11D639FAA27F00DB11DAA1F649FE8
:1023C0006627B00DA11D661F829F2227B00DA11D9B
:1023D000621F739FB00DA11D621F839FA00D611D21
:1023E000221F749F3327A00D611D231F849F600D42
:1023F000211D822F762F6A2F11249F5750409AF06B
:10240000F1F088234AF0EE0FFF1FBB1F661F771FF6
:10241000881F91505040A9F79E3F510580F00C94C1
:1024200026120C9471125F3FE4F3983ED4F3869524
:1024300077956795B795F795E7959F5FC1F7FE2B61
:10244000880F911D9695879597F9089597F99F673D
:1024500080E870E060E008959FEF80EC089500242C
:102460000A941616170618060906089500240A94F9
:1024700012161306140605060895092E0394000C7F
:1024800011F4882352F0BB0F40F4BF2B11F460FF0E
:1024900004C06F5F7F4F8F4F9F4F089557FD905837
:1024A000440F551F59F05F3F71F04795880F97FB18
:1024B000991F61F09F3F79F08795089512161306D2
:1024C0001406551FF2CF4695F1DF08C01616170601
:1024D0001806991FF1CF8695710561050894089536
:1024E000E894BB2766277727CB0197F90895F999D8
:1024F000FECF92BD81BDF89A992780B508952F929D
:102500003F924F925F926F927F928F929F92AF9283
:10251000BF92CF92DF92EF92FF920F931F93CF93D0
:10252000DF93CDB7DEB7CA1BDB0B0FB6F894DEBF67
:102530000FBECDBF09942A88398848885F846E848D
:102540007D848C849B84AA84B984C884DF80EE80D7
:10255000FD800C811B81AA81B981CE0FD11D0FB6E0
:10256000F894DEBF0FBECDBFED010895F894FFCF04
:10257000450345030113000000BE02800000000077
:10258000009C0404011803F6020A03E304496E697F
:102590007469616C69736172696F6E20616E7465D4
:1025A0006E6E65205246207465726D696E65652E8B
:1025B0002E2E004C616D706520616C6C756D652010
:1025C00061206C27686575726520005461696C6CC8
:1025D0006520000D0A00456E766F69207465726D86
:1025E000696E65004563686563206465206C2765D6
:1025F0006E766F69007E405D2360006D6573757255
:04260000653A200017
:107E0000112484B714BE81FFF0D085E080938100F7
:107E100082E08093C00088E18093C10086E0809377
:107E2000C20080E18093C4008EE0C9D0259A86E02C
:107E300020E33CEF91E0309385002093840096BBD3
:107E4000B09BFECF1D9AA8958150A9F7CC24DD24C4
:107E500088248394B5E0AB2EA1E19A2EF3E0BF2EE7
:107E6000A2D0813461F49FD0082FAFD0023811F036
:107E7000013811F484E001C083E08DD089C08234E0
:107E800011F484E103C0853419F485E0A6D080C0E4
:107E9000853579F488D0E82EFF2485D0082F10E0AE
:107EA000102F00270E291F29000F111F8ED06801E7
:107EB0006FC0863521F484E090D080E0DECF843638
:107EC00009F040C070D06FD0082F6DD080E0C81688
:107ED00080E7D80618F4F601B7BEE895C0E0D1E017
:107EE00062D089930C17E1F7F0E0CF16F0E7DF06D8
:107EF00018F0F601B7BEE89568D007B600FCFDCFD4
:107F0000A601A0E0B1E02C9130E011968C91119780
:107F100090E0982F8827822B932B1296FA010C0160
:107F200087BEE89511244E5F5F4FF1E0A038BF0790
:107F300051F7F601A7BEE89507B600FCFDCF97BE46
:107F4000E89526C08437B1F42ED02DD0F82E2BD052
:107F50003CD0F601EF2C8F010F5F1F4F84911BD097
:107F6000EA94F801C1F70894C11CD11CFA94CF0C13
:107F7000D11C0EC0853739F428D08EE10CD085E9AC
:107F80000AD08FE07ACF813511F488E018D01DD067
:107F900080E101D065CF982F8091C00085FFFCCF94
:107FA0009093C60008958091C00087FFFCCF809118
:107FB000C00084FD01C0A8958091C6000895E0E648
:107FC000F0E098E1908380830895EDDF803219F02E
:107FD00088E0F5DFFFCF84E1DECF1F93182FE3DFCA
:107FE0001150E9F7F2DF1F91089580E0E8DFEE27F6
:047FF000FF270994CA
:027FFE00040479
:0400000300007E007B
:00000001FF
